{
  "_format": "hh-sol-artifact-1",
  "contractName": "NFTMarket",
  "sourceName": "contracts/NFTMarketplace.sol",
  "abi": [
    {
      "inputs": [],
      "stateMutability": "nonpayable",
      "type": "constructor"
    },
    {
      "inputs": [
        {
          "internalType": "address",
          "name": "sender",
          "type": "address"
        },
        {
          "internalType": "uint256",
          "name": "tokenId",
          "type": "uint256"
        },
        {
          "internalType": "address",
          "name": "owner",
          "type": "address"
        }
      ],
      "name": "ERC721IncorrectOwner",
      "type": "error"
    },
    {
      "inputs": [
        {
          "internalType": "address",
          "name": "operator",
          "type": "address"
        },
        {
          "internalType": "uint256",
          "name": "tokenId",
          "type": "uint256"
        }
      ],
      "name": "ERC721InsufficientApproval",
      "type": "error"
    },
    {
      "inputs": [
        {
          "internalType": "address",
          "name": "approver",
          "type": "address"
        }
      ],
      "name": "ERC721InvalidApprover",
      "type": "error"
    },
    {
      "inputs": [
        {
          "internalType": "address",
          "name": "operator",
          "type": "address"
        }
      ],
      "name": "ERC721InvalidOperator",
      "type": "error"
    },
    {
      "inputs": [
        {
          "internalType": "address",
          "name": "owner",
          "type": "address"
        }
      ],
      "name": "ERC721InvalidOwner",
      "type": "error"
    },
    {
      "inputs": [
        {
          "internalType": "address",
          "name": "receiver",
          "type": "address"
        }
      ],
      "name": "ERC721InvalidReceiver",
      "type": "error"
    },
    {
      "inputs": [
        {
          "internalType": "address",
          "name": "sender",
          "type": "address"
        }
      ],
      "name": "ERC721InvalidSender",
      "type": "error"
    },
    {
      "inputs": [
        {
          "internalType": "uint256",
          "name": "tokenId",
          "type": "uint256"
        }
      ],
      "name": "ERC721NonexistentToken",
      "type": "error"
    },
    {
      "inputs": [],
      "name": "EnforcedPause",
      "type": "error"
    },
    {
      "inputs": [],
      "name": "ExpectedPause",
      "type": "error"
    },
    {
      "anonymous": false,
      "inputs": [
        {
          "indexed": true,
          "internalType": "address",
          "name": "owner",
          "type": "address"
        },
        {
          "indexed": true,
          "internalType": "address",
          "name": "approved",
          "type": "address"
        },
        {
          "indexed": true,
          "internalType": "uint256",
          "name": "tokenId",
          "type": "uint256"
        }
      ],
      "name": "Approval",
      "type": "event"
    },
    {
      "anonymous": false,
      "inputs": [
        {
          "indexed": true,
          "internalType": "address",
          "name": "owner",
          "type": "address"
        },
        {
          "indexed": true,
          "internalType": "address",
          "name": "operator",
          "type": "address"
        },
        {
          "indexed": false,
          "internalType": "bool",
          "name": "approved",
          "type": "bool"
        }
      ],
      "name": "ApprovalForAll",
      "type": "event"
    },
    {
      "anonymous": false,
      "inputs": [
        {
          "indexed": false,
          "internalType": "uint256",
          "name": "_fromTokenId",
          "type": "uint256"
        },
        {
          "indexed": false,
          "internalType": "uint256",
          "name": "_toTokenId",
          "type": "uint256"
        }
      ],
      "name": "BatchMetadataUpdate",
      "type": "event"
    },
    {
      "anonymous": false,
      "inputs": [
        {
          "indexed": false,
          "internalType": "uint256",
          "name": "_tokenId",
          "type": "uint256"
        }
      ],
      "name": "MetadataUpdate",
      "type": "event"
    },
    {
      "anonymous": false,
      "inputs": [
        {
          "indexed": false,
          "internalType": "address",
          "name": "account",
          "type": "address"
        }
      ],
      "name": "Paused",
      "type": "event"
    },
    {
      "anonymous": false,
      "inputs": [
        {
          "indexed": true,
          "internalType": "address",
          "name": "from",
          "type": "address"
        },
        {
          "indexed": true,
          "internalType": "address",
          "name": "to",
          "type": "address"
        },
        {
          "indexed": true,
          "internalType": "uint256",
          "name": "tokenId",
          "type": "uint256"
        }
      ],
      "name": "Transfer",
      "type": "event"
    },
    {
      "anonymous": false,
      "inputs": [
        {
          "indexed": false,
          "internalType": "address",
          "name": "account",
          "type": "address"
        }
      ],
      "name": "Unpaused",
      "type": "event"
    },
    {
      "anonymous": false,
      "inputs": [
        {
          "indexed": true,
          "internalType": "uint256",
          "name": "tokenId",
          "type": "uint256"
        },
        {
          "indexed": false,
          "internalType": "address",
          "name": "seller",
          "type": "address"
        },
        {
          "indexed": false,
          "internalType": "address",
          "name": "owner",
          "type": "address"
        },
        {
          "indexed": false,
          "internalType": "uint256",
          "name": "price",
          "type": "uint256"
        },
        {
          "indexed": false,
          "internalType": "bool",
          "name": "sold",
          "type": "bool"
        }
      ],
      "name": "idMarketItemsCreated",
      "type": "event"
    },
    {
      "inputs": [
        {
          "internalType": "address",
          "name": "to",
          "type": "address"
        },
        {
          "internalType": "uint256",
          "name": "tokenId",
          "type": "uint256"
        }
      ],
      "name": "approve",
      "outputs": [],
      "stateMutability": "nonpayable",
      "type": "function"
    },
    {
      "inputs": [
        {
          "internalType": "address",
          "name": "owner",
          "type": "address"
        }
      ],
      "name": "balanceOf",
      "outputs": [
        {
          "internalType": "uint256",
          "name": "",
          "type": "uint256"
        }
      ],
      "stateMutability": "view",
      "type": "function"
    },
    {
      "inputs": [
        {
          "internalType": "uint256",
          "name": "tokenId",
          "type": "uint256"
        }
      ],
      "name": "burn",
      "outputs": [],
      "stateMutability": "nonpayable",
      "type": "function"
    },
    {
      "inputs": [
        {
          "internalType": "uint256",
          "name": "tokenId",
          "type": "uint256"
        }
      ],
      "name": "createMarketSale",
      "outputs": [],
      "stateMutability": "payable",
      "type": "function"
    },
    {
      "inputs": [
        {
          "internalType": "string",
          "name": "_tokenURI",
          "type": "string"
        },
        {
          "internalType": "uint256",
          "name": "price",
          "type": "uint256"
        }
      ],
      "name": "createToken",
      "outputs": [
        {
          "internalType": "uint256",
          "name": "",
          "type": "uint256"
        }
      ],
      "stateMutability": "nonpayable",
      "type": "function"
    },
    {
      "inputs": [],
      "name": "fetchItemsListed",
      "outputs": [
        {
          "components": [
            {
              "internalType": "uint256",
              "name": "tokenId",
              "type": "uint256"
            },
            {
              "internalType": "address payable",
              "name": "seller",
              "type": "address"
            },
            {
              "internalType": "address payable",
              "name": "owner",
              "type": "address"
            },
            {
              "internalType": "uint256",
              "name": "price",
              "type": "uint256"
            },
            {
              "internalType": "bool",
              "name": "sold",
              "type": "bool"
            }
          ],
          "internalType": "struct NFTMarket.MarketItem[]",
          "name": "",
          "type": "tuple[]"
        }
      ],
      "stateMutability": "view",
      "type": "function"
    },
    {
      "inputs": [],
      "name": "fetchMarketItem",
      "outputs": [
        {
          "components": [
            {
              "internalType": "uint256",
              "name": "tokenId",
              "type": "uint256"
            },
            {
              "internalType": "address payable",
              "name": "seller",
              "type": "address"
            },
            {
              "internalType": "address payable",
              "name": "owner",
              "type": "address"
            },
            {
              "internalType": "uint256",
              "name": "price",
              "type": "uint256"
            },
            {
              "internalType": "bool",
              "name": "sold",
              "type": "bool"
            }
          ],
          "internalType": "struct NFTMarket.MarketItem[]",
          "name": "",
          "type": "tuple[]"
        }
      ],
      "stateMutability": "view",
      "type": "function"
    },
    {
      "inputs": [],
      "name": "fetchMyNFT",
      "outputs": [
        {
          "components": [
            {
              "internalType": "uint256",
              "name": "tokenId",
              "type": "uint256"
            },
            {
              "internalType": "address payable",
              "name": "seller",
              "type": "address"
            },
            {
              "internalType": "address payable",
              "name": "owner",
              "type": "address"
            },
            {
              "internalType": "uint256",
              "name": "price",
              "type": "uint256"
            },
            {
              "internalType": "bool",
              "name": "sold",
              "type": "bool"
            }
          ],
          "internalType": "struct NFTMarket.MarketItem[]",
          "name": "",
          "type": "tuple[]"
        }
      ],
      "stateMutability": "view",
      "type": "function"
    },
    {
      "inputs": [
        {
          "internalType": "uint256",
          "name": "tokenId",
          "type": "uint256"
        }
      ],
      "name": "getApproved",
      "outputs": [
        {
          "internalType": "address",
          "name": "",
          "type": "address"
        }
      ],
      "stateMutability": "view",
      "type": "function"
    },
    {
      "inputs": [],
      "name": "getListingPrice",
      "outputs": [
        {
          "internalType": "uint256",
          "name": "",
          "type": "uint256"
        }
      ],
      "stateMutability": "view",
      "type": "function"
    },
    {
      "inputs": [
        {
          "internalType": "address",
          "name": "owner",
          "type": "address"
        },
        {
          "internalType": "address",
          "name": "operator",
          "type": "address"
        }
      ],
      "name": "isApprovedForAll",
      "outputs": [
        {
          "internalType": "bool",
          "name": "",
          "type": "bool"
        }
      ],
      "stateMutability": "view",
      "type": "function"
    },
    {
      "inputs": [],
      "name": "listingPrice",
      "outputs": [
        {
          "internalType": "uint256",
          "name": "",
          "type": "uint256"
        }
      ],
      "stateMutability": "view",
      "type": "function"
    },
    {
      "inputs": [],
      "name": "name",
      "outputs": [
        {
          "internalType": "string",
          "name": "",
          "type": "string"
        }
      ],
      "stateMutability": "view",
      "type": "function"
    },
    {
      "inputs": [
        {
          "internalType": "uint256",
          "name": "tokenId",
          "type": "uint256"
        }
      ],
      "name": "ownerOf",
      "outputs": [
        {
          "internalType": "address",
          "name": "",
          "type": "address"
        }
      ],
      "stateMutability": "view",
      "type": "function"
    },
    {
      "inputs": [],
      "name": "pause",
      "outputs": [],
      "stateMutability": "nonpayable",
      "type": "function"
    },
    {
      "inputs": [],
      "name": "paused",
      "outputs": [
        {
          "internalType": "bool",
          "name": "",
          "type": "bool"
        }
      ],
      "stateMutability": "view",
      "type": "function"
    },
    {
      "inputs": [
        {
          "internalType": "uint256",
          "name": "tokenId",
          "type": "uint256"
        },
        {
          "internalType": "uint256",
          "name": "price",
          "type": "uint256"
        }
      ],
      "name": "reSaleToken",
      "outputs": [],
      "stateMutability": "payable",
      "type": "function"
    },
    {
      "inputs": [
        {
          "internalType": "address",
          "name": "from",
          "type": "address"
        },
        {
          "internalType": "address",
          "name": "to",
          "type": "address"
        },
        {
          "internalType": "uint256",
          "name": "tokenId",
          "type": "uint256"
        }
      ],
      "name": "safeTransferFrom",
      "outputs": [],
      "stateMutability": "nonpayable",
      "type": "function"
    },
    {
      "inputs": [
        {
          "internalType": "address",
          "name": "from",
          "type": "address"
        },
        {
          "internalType": "address",
          "name": "to",
          "type": "address"
        },
        {
          "internalType": "uint256",
          "name": "tokenId",
          "type": "uint256"
        },
        {
          "internalType": "bytes",
          "name": "data",
          "type": "bytes"
        }
      ],
      "name": "safeTransferFrom",
      "outputs": [],
      "stateMutability": "nonpayable",
      "type": "function"
    },
    {
      "inputs": [
        {
          "internalType": "address",
          "name": "operator",
          "type": "address"
        },
        {
          "internalType": "bool",
          "name": "approved",
          "type": "bool"
        }
      ],
      "name": "setApprovalForAll",
      "outputs": [],
      "stateMutability": "nonpayable",
      "type": "function"
    },
    {
      "inputs": [
        {
          "internalType": "bytes4",
          "name": "interfaceId",
          "type": "bytes4"
        }
      ],
      "name": "supportsInterface",
      "outputs": [
        {
          "internalType": "bool",
          "name": "",
          "type": "bool"
        }
      ],
      "stateMutability": "view",
      "type": "function"
    },
    {
      "inputs": [],
      "name": "symbol",
      "outputs": [
        {
          "internalType": "string",
          "name": "",
          "type": "string"
        }
      ],
      "stateMutability": "view",
      "type": "function"
    },
    {
      "inputs": [
        {
          "internalType": "uint256",
          "name": "tokenId",
          "type": "uint256"
        }
      ],
      "name": "tokenURI",
      "outputs": [
        {
          "internalType": "string",
          "name": "",
          "type": "string"
        }
      ],
      "stateMutability": "view",
      "type": "function"
    },
    {
      "inputs": [
        {
          "internalType": "address",
          "name": "from",
          "type": "address"
        },
        {
          "internalType": "address",
          "name": "to",
          "type": "address"
        },
        {
          "internalType": "uint256",
          "name": "tokenId",
          "type": "uint256"
        }
      ],
      "name": "transferFrom",
      "outputs": [],
      "stateMutability": "nonpayable",
      "type": "function"
    },
    {
      "inputs": [],
      "name": "unpause",
      "outputs": [],
      "stateMutability": "nonpayable",
      "type": "function"
    },
    {
      "inputs": [
        {
          "internalType": "uint256",
          "name": "_listingPrice",
          "type": "uint256"
        }
      ],
      "name": "updateListingPrice",
      "outputs": [],
      "stateMutability": "payable",
      "type": "function"
    }
  ],
  "bytecode": "0x608060405265e35fa931a000600a553480156200001b57600080fd5b506040518060400160405280601581526020017f4e465420506978656c204d61726b6574706c61636500000000000000000000008152506040518060400160405280600381526020017f4e5058000000000000000000000000000000000000000000000000000000000081525081600090816200009991906200036f565b508060019081620000ab91906200036f565b5050506000600760006101000a81548160ff0219169083151502179055503373ffffffffffffffffffffffffffffffffffffffff16600b60009054906101000a9050505062000456565b600081519050919050565b7f4e487b7100000000000000000000000000000000000000000000000000000000600052604160045260246000fd5b7f4e487b7100000000000000000000000000000000000000000000000000000000600052602260045260246000fd5b600060028204905060018216806200017757607f821691505b6020821081036200018d576200018c6200012f565b5b50919050565b60008190508160005260206000209050919050565b60006020601f8301049050919050565b600082821b905092915050565b600060088302620001f77fffffffffffffffffffffffffffffffffffffffffffffffffffffffffffffffff82620001b8565b620002038683620001b8565b95508019841693508086168417925050509392505050565b6000819050919050565b6000819050919050565b6000620002506200024a62000244846200021b565b62000225565b6200021b565b9050919050565b6000819050919050565b6200026c836200022f565b620002846200027b8262000257565b848454620001c5565b825550505050565b600090565b6200029b6200028c565b620002a881848462000261565b505050565b5b81811015620002d057620002c460008262000291565b600181019050620002ae565b5050565b601f8211156200031f57620002e98162000193565b620002f484620001a8565b8101602085101562000304578190505b6200031c6200031385620001a8565b830182620002ad565b50505b505050565b600082821c905092915050565b6000620003446000198460080262000324565b1980831691505092915050565b60006200035f838362000331565b9150826002028217905092915050565b6200037a82620000f5565b67ffffffffffffffff81111562000396576200039562000100565b5b620003a282546200015e565b620003af828285620002d4565b600060209050601f831160018114620003e75760008415620003d2578287015190505b620003de858262000351565b8655506200044e565b601f198416620003f78662000193565b60005b828110156200042157848901518255600182019150602085019450602081019050620003fa565b868310156200044157848901516200043d601f89168262000331565b8355505b6001600288020188555050505b505050505050565b6140b480620004666000396000f3fe6080604052600436106101815760003560e01c806370a08231116100d1578063ae677aa31161008a578063c18763f711610064578063c18763f714610531578063c78f19f91461055c578063c87b56dd14610587578063e985e9c5146105c457610181565b8063ae677aa3146104d0578063b88d4fde146104ec578063be9af5361461051557610181565b806370a08231146103c057806372b3b620146103fd5780638456cb591461043a5780638fafd0211461045157806395d89b411461047c578063a22cb465146104a757610181565b80633aa15f311161013e57806342966c681161011857806342966c681461030457806345f8fa801461032d5780635c975abb146103585780636352211e1461038357610181565b80633aa15f31146102a85780633f4ba83a146102c457806342842e0e146102db57610181565b806301ffc9a71461018657806306fdde03146101c3578063081812fc146101ee578063095ea7b31461022b57806312e855851461025457806323b872dd1461027f575b600080fd5b34801561019257600080fd5b506101ad60048036038101906101a89190612f32565b610601565b6040516101ba9190612f7a565b60405180910390f35b3480156101cf57600080fd5b506101d8610613565b6040516101e59190613025565b60405180910390f35b3480156101fa57600080fd5b506102156004803603810190610210919061307d565b6106a5565b60405161022291906130eb565b60405180910390f35b34801561023757600080fd5b50610252600480360381019061024d9190613132565b6106c1565b005b34801561026057600080fd5b506102696106d7565b6040516102769190613181565b60405180910390f35b34801561028b57600080fd5b506102a660048036038101906102a1919061319c565b6106e1565b005b6102c260048036038101906102bd91906131ef565b6107e3565b005b3480156102d057600080fd5b506102d96109d5565b005b3480156102e757600080fd5b5061030260048036038101906102fd919061319c565b610a6f565b005b34801561031057600080fd5b5061032b6004803603810190610326919061307d565b610a8f565b005b34801561033957600080fd5b50610342610aa6565b60405161034f9190613385565b60405180910390f35b34801561036457600080fd5b5061036d610d7f565b60405161037a9190612f7a565b60405180910390f35b34801561038f57600080fd5b506103aa60048036038101906103a5919061307d565b610d96565b6040516103b791906130eb565b60405180910390f35b3480156103cc57600080fd5b506103e760048036038101906103e291906133a7565b610da8565b6040516103f49190613181565b60405180910390f35b34801561040957600080fd5b50610424600480360381019061041f9190613509565b610e62565b6040516104319190613181565b60405180910390f35b34801561044657600080fd5b5061044f610eab565b005b34801561045d57600080fd5b50610466610f45565b6040516104739190613385565b60405180910390f35b34801561048857600080fd5b50610491611192565b60405161049e9190613025565b60405180910390f35b3480156104b357600080fd5b506104ce60048036038101906104c99190613591565b611224565b005b6104ea60048036038101906104e5919061307d565b61123a565b005b3480156104f857600080fd5b50610513600480360381019061050e9190613672565b6112d4565b005b61052f600480360381019061052a919061307d565b6112f1565b005b34801561053d57600080fd5b50610546611526565b6040516105539190613385565b60405180910390f35b34801561056857600080fd5b506105716117ff565b60405161057e9190613181565b60405180910390f35b34801561059357600080fd5b506105ae60048036038101906105a9919061307d565b611805565b6040516105bb9190613025565b60405180910390f35b3480156105d057600080fd5b506105eb60048036038101906105e691906136f5565b611817565b6040516105f89190612f7a565b60405180910390f35b600061060c826118ab565b9050919050565b60606000805461062290613764565b80601f016020809104026020016040519081016040528092919081815260200182805461064e90613764565b801561069b5780601f106106705761010080835404028352916020019161069b565b820191906000526020600020905b81548152906001019060200180831161067e57829003601f168201915b5050505050905090565b60006106b08261190c565b506106ba82611994565b9050919050565b6106d382826106ce6119d1565b6119d9565b5050565b6000600a54905090565b600073ffffffffffffffffffffffffffffffffffffffff168273ffffffffffffffffffffffffffffffffffffffff16036107535760006040517f64a0ae9200000000000000000000000000000000000000000000000000000000815260040161074a91906130eb565b60405180910390fd5b600061076783836107626119d1565b6119eb565b90508373ffffffffffffffffffffffffffffffffffffffff168173ffffffffffffffffffffffffffffffffffffffff16146107dd578382826040517f64283d7b0000000000000000000000000000000000000000000000000000000081526004016107d493929190613795565b60405180910390fd5b50505050565b3373ffffffffffffffffffffffffffffffffffffffff16600c600084815260200190815260200160002060020160009054906101000a900473ffffffffffffffffffffffffffffffffffffffff1673ffffffffffffffffffffffffffffffffffffffff1614610887576040517f08c379a000000000000000000000000000000000000000000000000000000000815260040161087e9061383e565b60405180910390fd5b600a5434146108cb576040517f08c379a00000000000000000000000000000000000000000000000000000000081526004016108c2906138d0565b60405180910390fd5b6000600c600084815260200190815260200160002060040160006101000a81548160ff02191690831515021790555080600c60008481526020019081526020016000206003018190555033600c600084815260200190815260200160002060010160006101000a81548173ffffffffffffffffffffffffffffffffffffffff021916908373ffffffffffffffffffffffffffffffffffffffff16021790555030600c600084815260200190815260200160002060020160006101000a81548173ffffffffffffffffffffffffffffffffffffffff021916908373ffffffffffffffffffffffffffffffffffffffff160217905550816009819055506109d1333084611a01565b5050565b600b60009054906101000a900473ffffffffffffffffffffffffffffffffffffffff1673ffffffffffffffffffffffffffffffffffffffff163373ffffffffffffffffffffffffffffffffffffffff1614610a65576040517f08c379a0000000000000000000000000000000000000000000000000000000008152600401610a5c90613962565b60405180910390fd5b610a6d611b6e565b565b610a8a838383604051806020016040528060008152506112d4565b505050565b610aa2600082610a9d6119d1565b6119eb565b5050565b60606000600854905060008060005b83811015610b4f573373ffffffffffffffffffffffffffffffffffffffff16600c6000600184610ae591906139b1565b815260200190815260200160002060010160009054906101000a900473ffffffffffffffffffffffffffffffffffffffff1673ffffffffffffffffffffffffffffffffffffffff1603610b4257600183610b3f91906139b1565b92505b8080600101915050610ab5565b5060008267ffffffffffffffff811115610b6c57610b6b6133de565b5b604051908082528060200260200182016040528015610ba557816020015b610b92612e69565b815260200190600190039081610b8a5790505b50905060005b84811015610d74573373ffffffffffffffffffffffffffffffffffffffff16600c6000600184610bdb91906139b1565b815260200190815260200160002060010160009054906101000a900473ffffffffffffffffffffffffffffffffffffffff1673ffffffffffffffffffffffffffffffffffffffff1603610d67576000600182610c3791906139b1565b90506000600c60008381526020019081526020016000209050806040518060a0016040529081600082015481526020016001820160009054906101000a900473ffffffffffffffffffffffffffffffffffffffff1673ffffffffffffffffffffffffffffffffffffffff1673ffffffffffffffffffffffffffffffffffffffff1681526020016002820160009054906101000a900473ffffffffffffffffffffffffffffffffffffffff1673ffffffffffffffffffffffffffffffffffffffff1673ffffffffffffffffffffffffffffffffffffffff168152602001600382015481526020016004820160009054906101000a900460ff161515151581525050848681518110610d4a57610d496139e5565b5b6020026020010181905250600185610d6291906139b1565b945050505b8080600101915050610bab565b508094505050505090565b6000600760009054906101000a900460ff16905090565b6000610da18261190c565b9050919050565b60008073ffffffffffffffffffffffffffffffffffffffff168273ffffffffffffffffffffffffffffffffffffffff1603610e1b5760006040517f89c62b64000000000000000000000000000000000000000000000000000000008152600401610e1291906130eb565b60405180910390fd5b600360008373ffffffffffffffffffffffffffffffffffffffff1673ffffffffffffffffffffffffffffffffffffffff168152602001908152602001600020549050919050565b600060086000815480929190610e7790613a14565b9190505550610e8833600854611bd1565b610e9460085484611cca565b610ea060085483611d26565b600854905092915050565b600b60009054906101000a900473ffffffffffffffffffffffffffffffffffffffff1673ffffffffffffffffffffffffffffffffffffffff163373ffffffffffffffffffffffffffffffffffffffff1614610f3b576040517f08c379a0000000000000000000000000000000000000000000000000000000008152600401610f3290613962565b60405180910390fd5b610f43611fa0565b565b6060600060085490506000600954600854610f609190613a5c565b90506000808267ffffffffffffffff811115610f7f57610f7e6133de565b5b604051908082528060200260200182016040528015610fb857816020015b610fa5612e69565b815260200190600190039081610f9d5790505b50905060005b84811015611187573073ffffffffffffffffffffffffffffffffffffffff16600c6000600184610fee91906139b1565b815260200190815260200160002060020160009054906101000a900473ffffffffffffffffffffffffffffffffffffffff1673ffffffffffffffffffffffffffffffffffffffff160361117a57600060018261104a91906139b1565b90506000600c60008381526020019081526020016000209050806040518060a0016040529081600082015481526020016001820160009054906101000a900473ffffffffffffffffffffffffffffffffffffffff1673ffffffffffffffffffffffffffffffffffffffff1673ffffffffffffffffffffffffffffffffffffffff1681526020016002820160009054906101000a900473ffffffffffffffffffffffffffffffffffffffff1673ffffffffffffffffffffffffffffffffffffffff1673ffffffffffffffffffffffffffffffffffffffff168152602001600382015481526020016004820160009054906101000a900460ff16151515158152505084868151811061115d5761115c6139e5565b5b602002602001018190525060018561117591906139b1565b945050505b8080600101915050610fbe565b508094505050505090565b6060600180546111a190613764565b80601f01602080910402602001604051908101604052809291908181526020018280546111cd90613764565b801561121a5780601f106111ef5761010080835404028352916020019161121a565b820191906000526020600020905b8154815290600101906020018083116111fd57829003601f168201915b5050505050905090565b61123661122f6119d1565b8383612003565b5050565b600b60009054906101000a900473ffffffffffffffffffffffffffffffffffffffff1673ffffffffffffffffffffffffffffffffffffffff163373ffffffffffffffffffffffffffffffffffffffff16146112ca576040517f08c379a00000000000000000000000000000000000000000000000000000000081526004016112c190613962565b60405180910390fd5b80600a8190555050565b6112df8484846106e1565b6112eb84848484612172565b50505050565b6000600c600083815260200190815260200160002060030154905080341461134e576040517f08c379a000000000000000000000000000000000000000000000000000000000815260040161134590613b02565b60405180910390fd5b33600c600084815260200190815260200160002060020160006101000a81548173ffffffffffffffffffffffffffffffffffffffff021916908373ffffffffffffffffffffffffffffffffffffffff1602179055506001600c600084815260200190815260200160002060040160006101000a81548160ff0219169083151502179055506000600c600084815260200190815260200160002060020160006101000a81548173ffffffffffffffffffffffffffffffffffffffff021916908373ffffffffffffffffffffffffffffffffffffffff1602179055508160098190555061143a303384611a01565b600b60009054906101000a900473ffffffffffffffffffffffffffffffffffffffff1673ffffffffffffffffffffffffffffffffffffffff166108fc600a549081150290604051600060405180830381858888f193505050501580156114a4573d6000803e3d6000fd5b50600c600083815260200190815260200160002060010160009054906101000a900473ffffffffffffffffffffffffffffffffffffffff1673ffffffffffffffffffffffffffffffffffffffff166108fc349081150290604051600060405180830381858888f19350505050158015611521573d6000803e3d6000fd5b505050565b60606000600854905060008060005b838110156115cf573373ffffffffffffffffffffffffffffffffffffffff16600c600060018461156591906139b1565b815260200190815260200160002060020160009054906101000a900473ffffffffffffffffffffffffffffffffffffffff1673ffffffffffffffffffffffffffffffffffffffff16036115c2576001836115bf91906139b1565b92505b8080600101915050611535565b5060008267ffffffffffffffff8111156115ec576115eb6133de565b5b60405190808252806020026020018201604052801561162557816020015b611612612e69565b81526020019060019003908161160a5790505b50905060005b848110156117f4573373ffffffffffffffffffffffffffffffffffffffff16600c600060018461165b91906139b1565b815260200190815260200160002060020160009054906101000a900473ffffffffffffffffffffffffffffffffffffffff1673ffffffffffffffffffffffffffffffffffffffff16036117e75760006001826116b791906139b1565b90506000600c60008381526020019081526020016000209050806040518060a0016040529081600082015481526020016001820160009054906101000a900473ffffffffffffffffffffffffffffffffffffffff1673ffffffffffffffffffffffffffffffffffffffff1673ffffffffffffffffffffffffffffffffffffffff1681526020016002820160009054906101000a900473ffffffffffffffffffffffffffffffffffffffff1673ffffffffffffffffffffffffffffffffffffffff1673ffffffffffffffffffffffffffffffffffffffff168152602001600382015481526020016004820160009054906101000a900460ff1615151515815250508486815181106117ca576117c96139e5565b5b60200260200101819052506001856117e291906139b1565b945050505b808060010191505061162b565b508094505050505090565b600a5481565b606061181082612329565b9050919050565b6000600560008473ffffffffffffffffffffffffffffffffffffffff1673ffffffffffffffffffffffffffffffffffffffff16815260200190815260200160002060008373ffffffffffffffffffffffffffffffffffffffff1673ffffffffffffffffffffffffffffffffffffffff16815260200190815260200160002060009054906101000a900460ff16905092915050565b6000634906490660e01b7bffffffffffffffffffffffffffffffffffffffffffffffffffffffff1916827bffffffffffffffffffffffffffffffffffffffffffffffffffffffff1916148061190557506119048261243c565b5b9050919050565b6000806119188361251e565b9050600073ffffffffffffffffffffffffffffffffffffffff168173ffffffffffffffffffffffffffffffffffffffff160361198b57826040517f7e2732890000000000000000000000000000000000000000000000000000000081526004016119829190613181565b60405180910390fd5b80915050919050565b60006004600083815260200190815260200160002060009054906101000a900473ffffffffffffffffffffffffffffffffffffffff169050919050565b600033905090565b6119e6838383600161255b565b505050565b60006119f8848484612720565b90509392505050565b600073ffffffffffffffffffffffffffffffffffffffff168273ffffffffffffffffffffffffffffffffffffffff1603611a735760006040517f64a0ae92000000000000000000000000000000000000000000000000000000008152600401611a6a91906130eb565b60405180910390fd5b6000611a81838360006119eb565b9050600073ffffffffffffffffffffffffffffffffffffffff168173ffffffffffffffffffffffffffffffffffffffff1603611af457816040517f7e273289000000000000000000000000000000000000000000000000000000008152600401611aeb9190613181565b60405180910390fd5b8373ffffffffffffffffffffffffffffffffffffffff168173ffffffffffffffffffffffffffffffffffffffff1614611b68578382826040517f64283d7b000000000000000000000000000000000000000000000000000000008152600401611b5f93929190613795565b60405180910390fd5b50505050565b611b7661273e565b6000600760006101000a81548160ff0219169083151502179055507f5db9ee0a495bf2e6ff9c91a7834c1ba4fdd244a5e8aa4e537bd38aeae4b073aa611bba6119d1565b604051611bc791906130eb565b60405180910390a1565b600073ffffffffffffffffffffffffffffffffffffffff168273ffffffffffffffffffffffffffffffffffffffff1603611c435760006040517f64a0ae92000000000000000000000000000000000000000000000000000000008152600401611c3a91906130eb565b60405180910390fd5b6000611c51838360006119eb565b9050600073ffffffffffffffffffffffffffffffffffffffff168173ffffffffffffffffffffffffffffffffffffffff1614611cc55760006040517f73c6ac6e000000000000000000000000000000000000000000000000000000008152600401611cbc91906130eb565b60405180910390fd5b505050565b80600660008481526020019081526020016000209081611cea9190613cce565b507ff8e1a15aba9398e019f0b49df1a4fde98ee17ae345cb5f6b5e2c27f5033e8ce782604051611d1a9190613181565b60405180910390a15050565b600073ffffffffffffffffffffffffffffffffffffffff16611d478361251e565b73ffffffffffffffffffffffffffffffffffffffff1603611d9d576040517f08c379a0000000000000000000000000000000000000000000000000000000008152600401611d9490613e12565b60405180910390fd5b60008111611de0576040517f08c379a0000000000000000000000000000000000000000000000000000000008152600401611dd790613e7e565b60405180910390fd5b600a543414611e24576040517f08c379a0000000000000000000000000000000000000000000000000000000008152600401611e1b906138d0565b60405180910390fd5b6040518060a001604052808381526020013373ffffffffffffffffffffffffffffffffffffffff1681526020013073ffffffffffffffffffffffffffffffffffffffff16815260200182815260200160001515815250600c60008481526020019081526020016000206000820151816000015560208201518160010160006101000a81548173ffffffffffffffffffffffffffffffffffffffff021916908373ffffffffffffffffffffffffffffffffffffffff16021790555060408201518160020160006101000a81548173ffffffffffffffffffffffffffffffffffffffff021916908373ffffffffffffffffffffffffffffffffffffffff1602179055506060820151816003015560808201518160040160006101000a81548160ff021916908315150217905550905050611f5d333084611a01565b817f4f1296c993f929540f3f7e63b947969860c631090d203982cb012937dba321c13330846000604051611f949493929190613e9e565b60405180910390a25050565b611fa861277e565b6001600760006101000a81548160ff0219169083151502179055507f62e78cea01bee320cd4e420270b5ea74000d11b0c9f74754ebdbfc544b05a258611fec6119d1565b604051611ff991906130eb565b60405180910390a1565b600073ffffffffffffffffffffffffffffffffffffffff168273ffffffffffffffffffffffffffffffffffffffff160361207457816040517f5b08ba1800000000000000000000000000000000000000000000000000000000815260040161206b91906130eb565b60405180910390fd5b80600560008573ffffffffffffffffffffffffffffffffffffffff1673ffffffffffffffffffffffffffffffffffffffff16815260200190815260200160002060008473ffffffffffffffffffffffffffffffffffffffff1673ffffffffffffffffffffffffffffffffffffffff16815260200190815260200160002060006101000a81548160ff0219169083151502179055508173ffffffffffffffffffffffffffffffffffffffff168373ffffffffffffffffffffffffffffffffffffffff167f17307eab39ab6107e8899845ad3d59bd9653f200f220920489ca2b5937696c31836040516121659190612f7a565b60405180910390a3505050565b60008373ffffffffffffffffffffffffffffffffffffffff163b1115612323578273ffffffffffffffffffffffffffffffffffffffff1663150b7a026121b66119d1565b8685856040518563ffffffff1660e01b81526004016121d89493929190613f38565b6020604051808303816000875af192505050801561221457506040513d601f19601f820116820180604052508101906122119190613f99565b60015b612298573d8060008114612244576040519150601f19603f3d011682016040523d82523d6000602084013e612249565b606091505b50600081510361229057836040517f64a0ae9200000000000000000000000000000000000000000000000000000000815260040161228791906130eb565b60405180910390fd5b805181602001fd5b63150b7a0260e01b7bffffffffffffffffffffffffffffffffffffffffffffffffffffffff1916817bffffffffffffffffffffffffffffffffffffffffffffffffffffffff19161461232157836040517f64a0ae9200000000000000000000000000000000000000000000000000000000815260040161231891906130eb565b60405180910390fd5b505b50505050565b60606123348261190c565b50600060066000848152602001908152602001600020805461235590613764565b80601f016020809104026020016040519081016040528092919081815260200182805461238190613764565b80156123ce5780601f106123a3576101008083540402835291602001916123ce565b820191906000526020600020905b8154815290600101906020018083116123b157829003601f168201915b5050505050905060006123df6127bf565b905060008151036123f4578192505050612437565b600082511115612429578082604051602001612411929190614002565b60405160208183030381529060405292505050612437565b612432846127d6565b925050505b919050565b60007f80ac58cd000000000000000000000000000000000000000000000000000000007bffffffffffffffffffffffffffffffffffffffffffffffffffffffff1916827bffffffffffffffffffffffffffffffffffffffffffffffffffffffff1916148061250757507f5b5e139f000000000000000000000000000000000000000000000000000000007bffffffffffffffffffffffffffffffffffffffffffffffffffffffff1916827bffffffffffffffffffffffffffffffffffffffffffffffffffffffff1916145b8061251757506125168261283f565b5b9050919050565b60006002600083815260200190815260200160002060009054906101000a900473ffffffffffffffffffffffffffffffffffffffff169050919050565b80806125945750600073ffffffffffffffffffffffffffffffffffffffff168273ffffffffffffffffffffffffffffffffffffffff1614155b156126c85760006125a48461190c565b9050600073ffffffffffffffffffffffffffffffffffffffff168373ffffffffffffffffffffffffffffffffffffffff161415801561260f57508273ffffffffffffffffffffffffffffffffffffffff168173ffffffffffffffffffffffffffffffffffffffff1614155b801561262257506126208184611817565b155b1561266457826040517fa9fbf51f00000000000000000000000000000000000000000000000000000000815260040161265b91906130eb565b60405180910390fd5b81156126c657838573ffffffffffffffffffffffffffffffffffffffff168273ffffffffffffffffffffffffffffffffffffffff167f8c5be1e5ebec7d5bd14f71427d1e84f3dd0314c0f7b2291e5b200ac8c7c3b92560405160405180910390a45b505b836004600085815260200190815260200160002060006101000a81548173ffffffffffffffffffffffffffffffffffffffff021916908373ffffffffffffffffffffffffffffffffffffffff16021790555050505050565b600061272a61277e565b6127358484846128a9565b90509392505050565b612746610d7f565b61277c576040517f8dfc202b00000000000000000000000000000000000000000000000000000000815260040160405180910390fd5b565b612786610d7f565b156127bd576040517fd93c066500000000000000000000000000000000000000000000000000000000815260040160405180910390fd5b565b606060405180602001604052806000815250905090565b60606127e18261190c565b5060006127ec6127bf565b9050600081511161280c5760405180602001604052806000815250612837565b8061281684612ac3565b604051602001612827929190614002565b6040516020818303038152906040525b915050919050565b60007f01ffc9a7000000000000000000000000000000000000000000000000000000007bffffffffffffffffffffffffffffffffffffffffffffffffffffffff1916827bffffffffffffffffffffffffffffffffffffffffffffffffffffffff1916149050919050565b6000806128b58461251e565b9050600073ffffffffffffffffffffffffffffffffffffffff168373ffffffffffffffffffffffffffffffffffffffff16146128f7576128f6818486612b91565b5b600073ffffffffffffffffffffffffffffffffffffffff168173ffffffffffffffffffffffffffffffffffffffff16146129885761293960008560008061255b565b6001600360008373ffffffffffffffffffffffffffffffffffffffff1673ffffffffffffffffffffffffffffffffffffffff168152602001908152602001600020600082825403925050819055505b600073ffffffffffffffffffffffffffffffffffffffff168573ffffffffffffffffffffffffffffffffffffffff1614612a0b576001600360008773ffffffffffffffffffffffffffffffffffffffff1673ffffffffffffffffffffffffffffffffffffffff168152602001908152602001600020600082825401925050819055505b846002600086815260200190815260200160002060006101000a81548173ffffffffffffffffffffffffffffffffffffffff021916908373ffffffffffffffffffffffffffffffffffffffff160217905550838573ffffffffffffffffffffffffffffffffffffffff168273ffffffffffffffffffffffffffffffffffffffff167fddf252ad1be2c89b69c2b068fc378daa952ba7f163c4a11628f55a4df523b3ef60405160405180910390a4809150509392505050565b606060006001612ad284612c55565b01905060008167ffffffffffffffff811115612af157612af06133de565b5b6040519080825280601f01601f191660200182016040528015612b235781602001600182028036833780820191505090505b509050600082602001820190505b600115612b86578080600190039150507f3031323334353637383961626364656600000000000000000000000000000000600a86061a8153600a8581612b7a57612b79614026565b5b04945060008503612b31575b819350505050919050565b612b9c838383612da8565b612c5057600073ffffffffffffffffffffffffffffffffffffffff168373ffffffffffffffffffffffffffffffffffffffff1603612c1157806040517f7e273289000000000000000000000000000000000000000000000000000000008152600401612c089190613181565b60405180910390fd5b81816040517f177e802f000000000000000000000000000000000000000000000000000000008152600401612c47929190614055565b60405180910390fd5b505050565b600080600090507a184f03e93ff9f4daa797ed6e38ed64bf6a1f0100000000000000008310612cb3577a184f03e93ff9f4daa797ed6e38ed64bf6a1f0100000000000000008381612ca957612ca8614026565b5b0492506040810190505b6d04ee2d6d415b85acef81000000008310612cf0576d04ee2d6d415b85acef81000000008381612ce657612ce5614026565b5b0492506020810190505b662386f26fc100008310612d1f57662386f26fc100008381612d1557612d14614026565b5b0492506010810190505b6305f5e1008310612d48576305f5e1008381612d3e57612d3d614026565b5b0492506008810190505b6127108310612d6d576127108381612d6357612d62614026565b5b0492506004810190505b60648310612d905760648381612d8657612d85614026565b5b0492506002810190505b600a8310612d9f576001810190505b80915050919050565b60008073ffffffffffffffffffffffffffffffffffffffff168373ffffffffffffffffffffffffffffffffffffffff1614158015612e6057508273ffffffffffffffffffffffffffffffffffffffff168473ffffffffffffffffffffffffffffffffffffffff161480612e215750612e208484611817565b5b80612e5f57508273ffffffffffffffffffffffffffffffffffffffff16612e4783611994565b73ffffffffffffffffffffffffffffffffffffffff16145b5b90509392505050565b6040518060a0016040528060008152602001600073ffffffffffffffffffffffffffffffffffffffff168152602001600073ffffffffffffffffffffffffffffffffffffffff168152602001600081526020016000151581525090565b6000604051905090565b600080fd5b600080fd5b60007fffffffff0000000000000000000000000000000000000000000000000000000082169050919050565b612f0f81612eda565b8114612f1a57600080fd5b50565b600081359050612f2c81612f06565b92915050565b600060208284031215612f4857612f47612ed0565b5b6000612f5684828501612f1d565b91505092915050565b60008115159050919050565b612f7481612f5f565b82525050565b6000602082019050612f8f6000830184612f6b565b92915050565b600081519050919050565b600082825260208201905092915050565b60005b83811015612fcf578082015181840152602081019050612fb4565b60008484015250505050565b6000601f19601f8301169050919050565b6000612ff782612f95565b6130018185612fa0565b9350613011818560208601612fb1565b61301a81612fdb565b840191505092915050565b6000602082019050818103600083015261303f8184612fec565b905092915050565b6000819050919050565b61305a81613047565b811461306557600080fd5b50565b60008135905061307781613051565b92915050565b60006020828403121561309357613092612ed0565b5b60006130a184828501613068565b91505092915050565b600073ffffffffffffffffffffffffffffffffffffffff82169050919050565b60006130d5826130aa565b9050919050565b6130e5816130ca565b82525050565b600060208201905061310060008301846130dc565b92915050565b61310f816130ca565b811461311a57600080fd5b50565b60008135905061312c81613106565b92915050565b6000806040838503121561314957613148612ed0565b5b60006131578582860161311d565b925050602061316885828601613068565b9150509250929050565b61317b81613047565b82525050565b60006020820190506131966000830184613172565b92915050565b6000806000606084860312156131b5576131b4612ed0565b5b60006131c38682870161311d565b93505060206131d48682870161311d565b92505060406131e586828701613068565b9150509250925092565b6000806040838503121561320657613205612ed0565b5b600061321485828601613068565b925050602061322585828601613068565b9150509250929050565b600081519050919050565b600082825260208201905092915050565b6000819050602082019050919050565b61326481613047565b82525050565b6000613275826130aa565b9050919050565b6132858161326a565b82525050565b61329481612f5f565b82525050565b60a0820160008201516132b0600085018261325b565b5060208201516132c3602085018261327c565b5060408201516132d6604085018261327c565b5060608201516132e9606085018261325b565b5060808201516132fc608085018261328b565b50505050565b600061330e838361329a565b60a08301905092915050565b6000602082019050919050565b60006133328261322f565b61333c818561323a565b93506133478361324b565b8060005b8381101561337857815161335f8882613302565b975061336a8361331a565b92505060018101905061334b565b5085935050505092915050565b6000602082019050818103600083015261339f8184613327565b905092915050565b6000602082840312156133bd576133bc612ed0565b5b60006133cb8482850161311d565b91505092915050565b600080fd5b600080fd5b7f4e487b7100000000000000000000000000000000000000000000000000000000600052604160045260246000fd5b61341682612fdb565b810181811067ffffffffffffffff82111715613435576134346133de565b5b80604052505050565b6000613448612ec6565b9050613454828261340d565b919050565b600067ffffffffffffffff821115613474576134736133de565b5b61347d82612fdb565b9050602081019050919050565b82818337600083830152505050565b60006134ac6134a784613459565b61343e565b9050828152602081018484840111156134c8576134c76133d9565b5b6134d384828561348a565b509392505050565b600082601f8301126134f0576134ef6133d4565b5b8135613500848260208601613499565b91505092915050565b600080604083850312156135205761351f612ed0565b5b600083013567ffffffffffffffff81111561353e5761353d612ed5565b5b61354a858286016134db565b925050602061355b85828601613068565b9150509250929050565b61356e81612f5f565b811461357957600080fd5b50565b60008135905061358b81613565565b92915050565b600080604083850312156135a8576135a7612ed0565b5b60006135b68582860161311d565b92505060206135c78582860161357c565b9150509250929050565b600067ffffffffffffffff8211156135ec576135eb6133de565b5b6135f582612fdb565b9050602081019050919050565b6000613615613610846135d1565b61343e565b905082815260208101848484011115613631576136306133d9565b5b61363c84828561348a565b509392505050565b600082601f830112613659576136586133d4565b5b8135613669848260208601613602565b91505092915050565b6000806000806080858703121561368c5761368b612ed0565b5b600061369a8782880161311d565b94505060206136ab8782880161311d565b93505060406136bc87828801613068565b925050606085013567ffffffffffffffff8111156136dd576136dc612ed5565b5b6136e987828801613644565b91505092959194509250565b6000806040838503121561370c5761370b612ed0565b5b600061371a8582860161311d565b925050602061372b8582860161311d565b9150509250929050565b7f4e487b7100000000000000000000000000000000000000000000000000000000600052602260045260246000fd5b6000600282049050600182168061377c57607f821691505b60208210810361378f5761378e613735565b5b50919050565b60006060820190506137aa60008301866130dc565b6137b76020830185613172565b6137c460408301846130dc565b949350505050565b7f596f7520617265206e6f7420746865206f776e6572206f66207468697320746f60008201527f6b656e0000000000000000000000000000000000000000000000000000000000602082015250565b6000613828602383612fa0565b9150613833826137cc565b604082019050919050565b600060208201905081810360008301526138578161381b565b9050919050565b7f5072696365206d75737420626520657175616c20746f206c697374696e67207060008201527f7269636500000000000000000000000000000000000000000000000000000000602082015250565b60006138ba602483612fa0565b91506138c58261385e565b604082019050919050565b600060208201905081810360008301526138e9816138ad565b9050919050565b7f4f6e6c79206f776e6572206f6620746865206d61726b6574706c61636520636160008201527f6e206368616e676520746865206c697374696e67207072696365000000000000602082015250565b600061394c603a83612fa0565b9150613957826138f0565b604082019050919050565b6000602082019050818103600083015261397b8161393f565b9050919050565b7f4e487b7100000000000000000000000000000000000000000000000000000000600052601160045260246000fd5b60006139bc82613047565b91506139c783613047565b92508282019050808211156139df576139de613982565b5b92915050565b7f4e487b7100000000000000000000000000000000000000000000000000000000600052603260045260246000fd5b6000613a1f82613047565b91507fffffffffffffffffffffffffffffffffffffffffffffffffffffffffffffffff8203613a5157613a50613982565b5b600182019050919050565b6000613a6782613047565b9150613a7283613047565b9250828203905081811115613a8a57613a89613982565b5b92915050565b7f506c65617365207375626d6974207468652061736b696e67207072696365206960008201527f6e206f7264657220746f20636f6d706c65746520746865207075726368617365602082015250565b6000613aec604083612fa0565b9150613af782613a90565b604082019050919050565b60006020820190508181036000830152613b1b81613adf565b9050919050565b60008190508160005260206000209050919050565b60006020601f8301049050919050565b600082821b905092915050565b600060088302613b847fffffffffffffffffffffffffffffffffffffffffffffffffffffffffffffffff82613b47565b613b8e8683613b47565b95508019841693508086168417925050509392505050565b6000819050919050565b6000613bcb613bc6613bc184613047565b613ba6565b613047565b9050919050565b6000819050919050565b613be583613bb0565b613bf9613bf182613bd2565b848454613b54565b825550505050565b600090565b613c0e613c01565b613c19818484613bdc565b505050565b5b81811015613c3d57613c32600082613c06565b600181019050613c1f565b5050565b601f821115613c8257613c5381613b22565b613c5c84613b37565b81016020851015613c6b578190505b613c7f613c7785613b37565b830182613c1e565b50505b505050565b600082821c905092915050565b6000613ca560001984600802613c87565b1980831691505092915050565b6000613cbe8383613c94565b9150826002028217905092915050565b613cd782612f95565b67ffffffffffffffff811115613cf057613cef6133de565b5b613cfa8254613764565b613d05828285613c41565b600060209050601f831160018114613d385760008415613d26578287015190505b613d308582613cb2565b865550613d98565b601f198416613d4686613b22565b60005b82811015613d6e57848901518255600182019150602085019450602081019050613d49565b86831015613d8b5784890151613d87601f891682613c94565b8355505b6001600288020188555050505b505050505050565b7f4552433732313a206f70657261746f7220717565727920666f72206e6f6e657860008201527f697374656e7420746f6b656e0000000000000000000000000000000000000000602082015250565b6000613dfc602c83612fa0565b9150613e0782613da0565b604082019050919050565b60006020820190508181036000830152613e2b81613def565b9050919050565b7f5072696365206d757374206265206174206c6561737420312077656900000000600082015250565b6000613e68601c83612fa0565b9150613e7382613e32565b602082019050919050565b60006020820190508181036000830152613e9781613e5b565b9050919050565b6000608082019050613eb360008301876130dc565b613ec060208301866130dc565b613ecd6040830185613172565b613eda6060830184612f6b565b95945050505050565b600081519050919050565b600082825260208201905092915050565b6000613f0a82613ee3565b613f148185613eee565b9350613f24818560208601612fb1565b613f2d81612fdb565b840191505092915050565b6000608082019050613f4d60008301876130dc565b613f5a60208301866130dc565b613f676040830185613172565b8181036060830152613f798184613eff565b905095945050505050565b600081519050613f9381612f06565b92915050565b600060208284031215613faf57613fae612ed0565b5b6000613fbd84828501613f84565b91505092915050565b600081905092915050565b6000613fdc82612f95565b613fe68185613fc6565b9350613ff6818560208601612fb1565b80840191505092915050565b600061400e8285613fd1565b915061401a8284613fd1565b91508190509392505050565b7f4e487b7100000000000000000000000000000000000000000000000000000000600052601260045260246000fd5b600060408201905061406a60008301856130dc565b6140776020830184613172565b939250505056fea2646970667358221220fc7e33e1978adce57f3a96614eb6d0448406007df282abc8fe65c404f792be3b64736f6c63430008160033",
  "linkReferences": {},
  "deployedLinkReferences": {}
}